:020000040800F2
:1000000000180010010A00082132000823320008FD
:10001000273200082B3200082F32000800000000B1
:100020000000000000000000000000003332000863
:10003000353200080000000037320008393200086D
:100040001B0A00081B0A00081B0A00081B0A0008FC
:100050001B0A00081B0A00081B0A00081B0A0008EC
:100060001B0A00081B0A00081B0A00081B0A0008DC
:100070001B0A00081B0A00081B0A00081B0A0008CC
:100080001B0A00081B0A00081B0A00081B0A0008BC
:100090001B0A00081B0A00081B0A00081B0A0008AC
:1000A0001B0A00081B0A00081B0A00081B0A00089C
:1000B0001B0A0008C90800081B0A00081B0A0008E0
:1000C0001B0A00081B0A00081B0A00081B0A00087C
:1000D0001B0A0008B50900081B0A00081B0A0008D3
:1000E0001B0A00081B0A00081B0A00081B0A00085C
:1000F0001B0A00081B0A00081B0A00081B0A00084C
:100100001B0A00081B0A00081B0A00081B0A00083B
:100110001B0A00081B0A00081B0A00081B0A00082B
:100120001B0A00081B0A00081B0A00081B0A00081B
:100130001B0A00081B0A00081B0A00081B0A00080B
:100140001B0A00081B0A00081B0A00081B0A0008FB
:100150001B0A00081B0A00081B0A00081B0A0008EB
:100160001B0A00081B0A00081B0A00081B0A0008DB
:100170001B0A00081B0A00081B0A00081B0A0008CB
:100180001B0A00081B0A000800F002F800F03CF807
:100190000AA090E8000C82448344AAF10107DA45E2
:1001A00001D100F031F8AFF2090EBAE80F0013F0F8
:1001B000010F18BFFB1A43F001031847004E00005F
:1001C000304E0000103A24BF78C878C1FAD85207E0
:1001D00024BF30C830C144BF04680C6070470000C1
:1001E0000023002400250026103A28BF78C1FBD840
:1001F000520728BF30C148BF0B6070471FB504F0DD
:10020000D7FE1FBD10B510BD04F08EFE1146FFF7DE
:10021000F5FF02F0C6FF04F0C0FE03B4FFF7F2FFE3
:1002200003BC00F067FB00001CB50121022001F0B7
:10023000C5F9012000908DF8040000208DF806001B
:1002400003208DF8050001208DF8070069465E48FF
:1002500000F0ECFC01215C4800F064FD40200090BF
:1002600001208DF8040000208DF8060003208DF891
:10027000050001208DF807006946544800F0D6FCBF
:100280004021524800F04EFD0121084601F096F948
:100290001820009001208DF8040000208DF8060041
:1002A00003208DF8050001208DF8070069464848B5
:1002B00000F0BCFC0821464800F034FD1021444801
:1002C00000F030FD1CBD1CB501210C2001F076F9B9
:1002D0003120009001208DF8040000208DF80600E8
:1002E00003208DF8050001208DF807006946374886
:1002F00000F09CFC0121354800F016FD1021334828
:1003000000F012FD2021314800F00EFD4020009049
:1003100000208DF8040003208DF8050001208DF8E1
:1003200007006946294800F081FC4FF4A050009076
:1003300001208DF8040000208DF8060003208DF8C0
:10034000050001208DF807006946224800F06EFC88
:100350004FF480611F4800F0E7FC4FF480511D48C6
:1003600000F0E2FC4FF40060009000208DF80400E3
:1003700003208DF8050001208DF807006946154817
:1003800000F054FC1CBD10B513480068401C124915
:1003900008600846006841F28831884207D9002089
:1003A0000D4908600D480078C0430C4908700B489F
:1003B000007820B90121044800F0B6FC03E00121D7
:1003C000014800F0AFFC10BD00040240000C0240E8
:1003D000000002400008024000000010040000106D
:1003E00010B504466FF0040000F07CFBE11704EB4D
:1003F0005171C1F3C701394A11701046007800EB02
:100400004001C1EBC0104FF6FF7101EAC000344952
:10041000088010BD0146314A12784A434FF0E0236C
:100420005A6100229A611A46126942F001021A6169
:1004300000BF4FF0E022106900F001021AB100F491
:100440008032002AF5D04FF0E022126922F001023A
:100450004FF0E0231A6100229A6170470146204A5A
:1004600012884A434FF0E0235A6100229A611A46EB
:10047000126942F001021A6100BF4FF0E0221069D8
:1004800000F001021AB100F48032002AF5D04FF0DA
:10049000E022126922F001024FF0E0231A610022EB
:1004A0009A61704770B504464FF4077094FBF0F002
:1004B000C6B24FF4077094FBF0F100FB114085B217
:1004C00005E04FF40770FFF7C9FF701EC6B2002E9B
:1004D000F7D115B12846FFF7C1FF70BD0600001027
:1004E0000800001010B5044600BF0221484801F082
:1004F000C9FB0028F9D02146454801F07AFB00BF2E
:100500000121434801F0BEFB0028F9D0404801F02A
:100510006DFBC0B210BD00B587B00121084601F0E7
:100520004DF80121080301F0A3F8E0200590022016
:100530008DF8180000208DF81A0003208DF819009E
:1005400002208DF81B0005A9324800F06FFB052240
:100550001146304800F0F5FB052206212D4800F039
:10056000F0FB052207212B4800F0EBFB01210803DB
:1005700001F0D3F800214FF4805001F0CEF80020B4
:10058000ADF800004FF48270ADF802000020ADF825
:100590000400ADF80600ADF808004FF40070ADF8A7
:1005A0000A000820ADF80C000020ADF80E0007206E
:1005B000ADF810006946164801F0A0F90121144871
:1005C00001F096FAFF20FFF78DFF07B000BD10B5D0
:1005D00004460F4800884FF6C77108400C49088050
:1005E00008460088204308800121094801F080FA6C
:1005F00010BD10B5044624B91021064800F094FB44
:1006000005E0012C03D11021024800F08BFB10BD46
:1006100000300140000002401CB50121082000F01C
:10062000CDFF0C20009001208DF8040000208DF8F3
:10063000060003208DF8050001208DF807006946AB
:10064000884800F0F3FA0120874908608749C1F81B
:1006500088021CBD10B58348006820F03000814935
:1006600008600846006840F01000086001207E49DC
:10067000091F08607D49C1F88C020420FFF7CAFEFB
:1006800000207949091F08600420FFF7C3FE0020FD
:100690007649C1F88C0210BD10B57248006820F090
:1006A0003000704908600846006840F0100008609B
:1006B00000206D4908606D49C1F888020420FFF7E9
:1006C000A9FE0120684908606849C1F88802042031
:1006D000FFF7A0FE10BD10B500246248006820F0AE
:1006E00030006049086008460068086001205E49E3
:1006F000091F0860FFF78EFE01205C49C1F88C02DB
:10070000FFF788FE07E0601CC4B2FA2C03DDFFF798
:10071000C3FF012010BD5448843800680028F2D17E
:100720005149086000BFF5E710B500204E49086048
:100730004C48006820F030004A49086008460068CC
:1007400040F01000086000204849C1F888020220EB
:10075000FFF760FE0120444908600220FFF75AFEBF
:1007600000204249C1F88C0210BD10B500203E495E
:1007700008603C48006820F030003A4908600846AC
:10078000006840F01000086001203849C1F8880274
:100790000220FFF73FFE0120334908600220FFF7E7
:1007A00039FE00203149C1F88C0210BD70B50446F5
:1007B0002C48006820F030002A490860084600688C
:1007C00040F010000860002027490860002517E06D
:1007D000E0092549091F08606006040E0220FFF7A2
:1007E00019FE01202149C1F88C020220FFF712FEF8
:1007F00000201D4908600220FFF70CFE681CC5B2EE
:10080000082DE5DB70BD70B505460024154800686D
:1008100020F0300013490860084600680860002690
:1008200016E00020104908600220FFF7F3FD0120C8
:100830000E49C1F88C026006040E0B48843800682B
:1008400008B1601CC4B20120FFF7E4FD701CC6B201
:10085000082EE6DB15B9FFF788FF01E0FFF764FF1C
:10086000204670BD000C02408C8241420080414213
:100870007FB505460C460121022000F0E8FE0295F6
:10088000ADF804400020ADF80600ADF80C0001A959
:10089000164801F0D4FA01221146144801F070FF05
:1008A0000121124801F054FB1D208DF800000120A9
:1008B0008DF8010003208DF8020001208DF803005F
:1008C000684600F0C2F87FBD10B50121074801F06D
:1008D0006EFF012804D106480068401C04490860E6
:1008E0000121024801F074FF10BD00000004004027
:1008F0002C000010014600BF704700BF3E4A12881E
:1009000002F04002002AF9D0C2B23B4B9A807047F5
:1009100010B588B004460121084600F04FFE0121C1
:10092000102000F0A5FE07220921344800F009FA42
:1009300007220A21314800F004FA4FF4C060069003
:1009400002208DF81C008DF81D0000208DF81E007F
:1009500001208DF81F0006A9284800F067F90294CD
:100960000020ADF80C00ADF80E00ADF81000ADF8A9
:1009700014000C20ADF8120002A91F4800F081FA03
:1009800001211D4800F005FB012240F225511A48C3
:1009900000F0B5FB25208DF8040003208DF805003C
:1009A0008DF8060001208DF8070001A800F04DF831
:1009B00008B010BD10B540F225510F4800F0DAFB29
:1009C00018B10D4800F014FBC4B210BD70B5054657
:1009D0000E46002400BF0BE0295D074800F004FB31
:1009E00000BF4021044800F0AFFB0128F9D1641C8E
:1009F000B442F1DB70BD0000001001400000024075
:100A00000948804709480047FEE7FEE7FEE7FEE7A2
:100A1000FEE7FEE7FEE7FEE7FEE7FEE704480549DE
:100A2000054A064B70470000193300088901000889
:100A30000012001000180010001400100014001024
:100A400032490143324A1160704770B500210023DA
:100A50000F22C4781CB32E4C246804F4E064C4F55F
:100A6000E064C4F30721C1F10404E3B20A4144780D
:100A70009C40E1B28478144021430C07210E254CA0
:100A800005786155047804F01F050124AC40057811
:100A90006D11AD0005F1E025C5F8004109E00478CD
:100AA00004F01F050124AC401B4D0678761145F873
:100AB000264070BD194A0A400243154B1B1F1A609D
:100AC000704739B1124A121D12680243104B1B1DA8
:100AD0001A6006E00E4A121D126882430C4B1B1D61
:100AE0001A607047042808D14FF0E021096941F0ED
:100AF00004014FF0E022116107E04FF0E0210969A5
:100B000021F004014FF0E022116170470000FA0566
:100B10000CED00E000E400E080E100E080FFFF1F5A
:100B200010B504469848844208D10121084600F0D7
:100B3000B0FD0021012000F0ACFD76E09348844236
:100B400008D10121022000F0A4FD0021022000F0C4
:100B5000A0FD6AE08E48844208D10121042000F003
:100B600098FD0021042000F094FD5EE08948844255
:100B700008D10121082000F08CFD0021082000F0A0
:100B800088FD52E08448844208D10121102000F001
:100B900080FD0021102000F07CFD46E07F4884426B
:100BA00008D10121202000F074FD0021202000F058
:100BB00070FD3AE07A48844208D10121402000F0DB
:100BC00068FD0021402000F064FD2EE0754884425D
:100BD00008D10121802000F05CFD0021802000F080
:100BE00058FD22E07048844208D10121801500F0B0
:100BF00050FD0021A01500F04CFD16E06B4884422A
:100C000008D10121401500F044FD0021601500F0DD
:100C100040FD0AE06648844207D10121001500F03A
:100C200038FD0021201500F034FD10BDF0B50A4656
:100C300000210023002400BF3DE0012505FA01F357
:100C4000156805EA03049C4234D105684F00032669
:100C5000BE40B543056015794E00B5400668354382
:100C600005601579012D02D01579022D16D1856800
:100C70004F000326BE40B543856055794E00B54010
:100C8000866835438560456801268E40B5434560DA
:100C9000456896798E40B6B235434560C5684F00C9
:100CA0000326BE40B543C560D5794E00B540C66841
:100CB0003543C560491C1029BFD3F0BD4FF6FF7105
:100CC00001600021017141718171C171704708B5E6
:100CD0004FF480320092009A0A430092009AC26157
:100CE000C161009AC261C2690092C269009208BDE6
:100CF0000246002013690B400BB1012000E00020E8
:100D000070470146086980B2704702460020536967
:100D10000B400BB1012000E00020704701464869FC
:100D200080B2704701837047418370470AB10183E5
:100D300000E0418370474161704742694A40426127
:100D40007047F0B5002300244D07ED0E02FA05F3BD
:100D5000CE1000F1200555F826504E07F70E0F264D
:100D6000BE40B543CF1000F1200646F82750CE1004
:100D700000F1200555F8265045EA0304CE1000F195
:100D8000200545F82640F0BD000002400004024066
:100D900000080240000C0240001002400014024013
:100DA00000180240001C02400020024000240240C3
:100DB0000028024010B50446FA48844208D10121B7
:100DC000102000F0AAFC0021102000F0A6FC57E043
:100DD000F548844209D10121480400F08DFC00212E
:100DE0004FF4003000F088FC4AE0F048844209D11A
:100DF0000121880400F080FC00214FF4802000F0E5
:100E00007BFC3DE0EA48844209D10121C80400F09E
:100E100073FC00214FF4002000F06EFC30E0E54848
:100E2000844209D10121080500F066FC00214FF43D
:100E3000801000F061FC23E0DF48844208D10121EA
:100E4000202000F06AFC0021202000F066FC17E062
:100E5000DA48844209D10121880700F04DFC0021C5
:100E60004FF0804000F048FC0AE0D548844207D1AA
:100E70000121400500F040FC0021600500F03CFC31
:100E800010BD2DE9FF4705460E460024A14600BFD0
:100E9000A046B08900B100BF2C8A24F44054F088E9
:100EA00004432C82AC8941F20C608443B0883189C0
:100EB0000843718908430443AC81AC8A24F440742C
:100EC000B0890443AC82684600F0A7FAB548854271
:100ED00002D0B948854202D1DDF80C9001E0DDF87E
:100EE0000890A88900F4004040B109EBC90000EB6C
:100EF000091031684900B0FBF1F707E009EBC900C0
:100F000000EB091031688900B0FBF1F76420B7FBF2
:100F1000F0F004012009642101FB1078A88900F495
:100F2000004040B1322000EBC800B0FBF1F000F00F
:100F30000700044308E0322000EB08106421B0FBF6
:100F4000F1F000F00F0004432C81BDE8FF874FF45F
:100F50001651016000218180C18001810C214181F5
:100F600000218181704710B502460020108A20F4CC
:100F700070600B884C8823438C882343CC882343A0
:100F80001843108210BD0021018041808180C18002
:100F9000704721B1828942F40052828104E0828943
:100FA0004DF6FF731A4082817047028B02F47F4234
:100FB0000283028B0A430283704721B1828942F483
:100FC0000042828103E08289C2F30E02828170476F
:100FD00021B1828A42F40062828204E0828A4FF266
:100FE000FF731A4082827047C1F308028280704703
:100FF00001468888C0F308007047028A4FF6F073F4
:101000001A400282028A0A430282704721B1828911
:1010100042F00202828104E082894FF6FD731A4099
:101020008281704782894FF2FF731A4082818289E0
:101030000A4382817047028A4FF6DF731A400282A8
:10104000028A0A430282704721B1028A42F4804236
:10105000028204E0028A4BF6FF731A400282704754
:10106000818941F001018181704721B1828A42F07A
:101070000802828204E0828A4FF6F7731A40828265
:101080007047028BD2B20283028B42EA01220283B2
:10109000704721B1828A42F02002828204E0828A73
:1010A0004FF6DF731A408282704721B1828A42F084
:1010B0001002828204E0828A4FF6EF731A40828225
:1010C0007047828A4FF6FB731A408282828A0A43F3
:1010D0008282704721B1828A42F00202828204E059
:1010E000828A4FF6FD731A40828270471AB1838A52
:1010F0000B43838202E0838A8B4383827047F0B57F
:101100000346002400260025002040F66A17B94255
:1011100000D100BF1846C1F3421401F01F06012799
:1011200007FA06F5012C01D10C3004E0022C01D1A4
:10113000103000E014301AB107682F43076002E056
:101140000768AF430760F0BD02460020B1F5007F9D
:1011500000D100BF13880B400BB1012000E000203C
:10116000704701F40072B2F5007F00D100BFCA439E
:101170000280704770B5024600240023002500203D
:1011800040F66A16B14200D100BFC1F3421501F02A
:101190001F03012606FA03F3012D13D1968933406C
:1011A00017E00000001001400044004000480040EB
:1011B000004C004000500040001401400078004006
:1011C000007C0040022D02D1168A334001E0968A4D
:1011D00033400C12012606FA04F41688344013B189
:1011E0000CB1012000E0002070BD10B500220023EA
:1011F00040F66A14A14200D100BF0A1201249440B3
:10120000A3B2DC43048010BDF948006840F001003F
:10121000F74908600020F64908310860F448006882
:10122000F4490840F2490860F348091D0860F34892
:10123000EF4984310860F0481038091D0860EC4817
:10124000006820F48020EA4908600020E8490C3159
:101250000860E7498C31086070470021E44A921C1D
:10126000117011460870704710B501460022002326
:1012700000204A11012A02D1DD4C236808E0022A2D
:1012800003D1DB4C7034236802E0D94C74342368FA
:1012900001F01F02012494401C400CB1012000E029
:1012A000002010BD38B5002000900024002500BFAC
:1012B0003120FFF7D9FF05460098401C00900098A8
:1012C000B0F5A04F01D0002DF2D03120FFF7CCFFB8
:1012D00008B1012400E00024204638BD014600206A
:1012E000C34A106820F0F80040EAC100106070475F
:1012F000C349086070470021BD4A703211701170F7
:10130000012802D004280AD104E00121B84A703231
:10131000117005E00521B64A7032117000E000BF7F
:1013200000BF7047B7490860704770B5049C41EA38
:1013300082150126C6EB530645EA0645054345EAF4
:101340000465AB4E361D356070BDAD49086670470B
:10135000820142EA0172A64B84331A607047A849A1
:101360008866704710B5830143EA016343EA02735C
:101370009F4C8834236010BDA14908677047A0497D
:10138000C864704702460020994B0833186820F063
:10139000EC6042EA01031843954B0833186070472C
:1013A00002460020924B0833186820F0784042EA49
:1013B000010318438E4B0833186070470146002024
:1013C0008B4A0832106820F0030008431060704711
:1013D00087480830006800F00C0070470146002084
:1013E000834A0832106820F0F0000843106070470C
:1013F000014600207E4A0832106820F4E05008437D
:101400001060704701460020794A0832106820F4C5
:10141000604040EAC10010607047F0B50021002232
:101420000024022500260223714F08373F6807F089
:101430000C0121B1042905D0082937D105E0724FEC
:10144000076036E0714F076033E0694F3F1D3F682A
:10145000C7F38056664F3F1D3F6807F03F036EB1EC
:101460006A4FB7FBF3F7DFF888C10CF1040CDCF826
:1014700000C0CCF3881C07FB0CF40CE0624FB7FBF8
:10148000F3F7DFF86CC10CF1040CDCF800C0CCF30E
:10149000881C07FB0CF4564F3F1D3F68C7F30147FC
:1014A0007F1C7D00B4FBF5F7076002E0564F076034
:1014B00000BF00BF4E4F08373F6807F0F001090931
:1014C000534F7A5C0768D7404760494F08373F68F9
:1014D00007F4E051890A4E4F7A5C4768D74087602D
:1014E000434F08373F6807F46041490B484F7A5C27
:1014F0004768D740C760F0BD002100F44072B2F5E4
:10150000407F0AD13A4A0832116821F4F811414A61
:1015100002401143364A08321160354A703212686F
:10152000C0F30B031A43324B70331A6070473549CE
:10153000443908607047334940390860704736497C
:101540000860704701460020294A8C32106820F458
:10155000401008431060704701460020244A8C3236
:10156000106820F4400008431060704701460020D6
:101570001F4A8C32106820F01F004A1E10431C4A7C
:101580008C321060704701460020194A8C32106876
:1015900020F4F8504A1E40EA0220154A8C321060AE
:1015A000704701460020124A8C32106820F4403007
:1015B00008431060704719490860704739B10C4AF8
:1015C0003032126802430A4B30331A6006E0084A90
:1015D000303212688243064B30331A607047F9B1DB
:1015E000034A343212680243014B34331A601CE060
:1015F00000380240FFFFF6EA1030002400300020DF
:1016000000004742800E47420024F40000127A0096
:1016100012000010FFFCFF0F5C014742E01147423F
:101620008F4A126882438E4B1A60704739B18C4AD8
:10163000121D126802438A4B1B1D1A6006E0884A7D
:10164000121D12688243864B1B1D1A60704739B108
:10165000834A0C3212680243814B0C331A6006E055
:101660007F4A0C32126882437D4B0C331A607047FC
:1016700039B17B4A103212680243794B10331A6039
:1016800006E0774A103212688243754B10331A60B5
:10169000704739B1724A243A12680243704B243BB6
:1016A0001A6006E06E4A243A126882436C4B243B6F
:1016B0001A60704739B16A4A203A12680243684B8F
:1016C000203B1A6006E0664A203A12688243644B67
:1016D000203B1A60704739B1614A1C3A12680243D4
:1016E0005F4B1C3B1A6006E05D4A1C3A126882435D
:1016F0005B4B1C3B1A60704739B1594A143A126867
:101700000243574B143B1A6006E0554A143A1268DC
:101710008243534B143B1A60704739B1504A103A18
:10172000126802434E4B103B1A6006E04C4A103AD6
:10173000126882434A4B103B1A60704739B1484ADD
:101740001C3212680243464B1C331A6006E0444ABE
:101750001C3212688243424B1C331A60704739B105
:101760003F4A2032126802433D4B20331A6006E0A4
:101770003B4A203212688243394B20331A6070474B
:1017800039B1374A243212680243354B24331A6088
:1017900006E0334A243212688243314B24331A6004
:1017A000704739B12E4A2C32126802432C4B2C332D
:1017B0001A6006E02A4A2C3212688243284B2C33E6
:1017C0001A60704739B1264A303212680243244BFE
:1017D00030331A6006E0224A303212688243204BCE
:1017E00030331A607047012808D11D493C3109681F
:1017F00041F008011A4A3C32116007E018493C31B7
:10180000096821F00801164A3C321160704739B16D
:10181000134A273A12780243114B273B1A7006E00D
:101820000F4A273A127882430D4B273B1A707047B4
:101830000B484030006840F0807009494031086032
:10184000704701460020064A283A12680A400AB149
:10185000012000E0002070470149263908707047D8
:101860003438024010B50446FB48844208D10121B7
:101870008014FFF752FF0021A014FFF74EFF3CE059
:10188000F648844208D101210014FFF735FF0021FA
:101890002014FFF731FF30E0F148844208D10121E4
:1018A000C013FFF729FF0021E013FFF725FF24E015
:1018B000EC48844208D101214014FFF72EFF00219B
:1018C0006014FFF72AFF18E0E748844209D101219C
:1018D0000805FFF722FF00214FF48010FFF71DFFDE
:1018E0000BE0E248844208D101214805FFF715FFCB
:1018F00000214FF40010FFF710FF10BD10B50022BB
:10190000028802F441520B884C8823438C8823437D
:10191000CC8823430C8923434C8923438C8923435C
:10192000CC8923431A430280838B4FF2FF742340F8
:1019300083830B8A038210BD2DE9F04F002502231B
:1019400000244FF00109002200260027944690460B
:10195000B0F81CA04FF2400B0AEA0B0AA0F81CA03A
:101960004FF0020AA0F820A0858BD1F808A0BAF1A8
:10197000020F01D100BF82E0B1F804A0BAF1000F5C
:1019800002D14FF0010901E04FF00209DFF8E0A2B7
:10199000DAF800A00AF4000ABAF1000F09D0DFF863
:1019A000D0A2DAF800A02AF4000ADFF8C4B2CBF81B
:1019B00000A0DFF8BCA20AF17C0ADAF800A0CAF3A2
:1019C000881CDFF8ACA20AF17C0ADAF800A0CAF39E
:1019D0000278DFF89CA2AAF1040ADAF800A00AF063
:1019E0003F07DFF88CA2AAF1040ADAF800A00AF493
:1019F000800ABAF5800F08D1DFF878A2BAFBF7FAAF
:101A00000AFB0CFABAFBF8F607E0DFF86CA2BAFBA7
:101A1000F7FA0AFB0CFABAFBF8F6B1F806A0BAF529
:101A2000007F0ED14FEA162A0AEB8A0A4FEA4A0AC9
:101A3000D1F808B0BAFBFBFA0AF1050A1FFA8AF2DC
:101A40000FE04FEA491AB6FBFAFA0AEB8A0A4FEAA4
:101A50004A0AD1F808B0BAFBFBFA0AF1050A1FFAE4
:101A60008AF24FF00A0AB2FBFAF202F00104A2EB8A
:101A7000040ACAF34F034FF6FF7A0AEA0424022B42
:101A800001DBFF2B01DD02230024B1F806A04AEAA6
:101A9000040A4AEA030AA0F820A0B1F804A0B1F8A9
:101AA0000CB04AEA0B0AB1F802B04AEA0B0AB1F8E4
:101AB00000B04AEA0B0A4AF4006A4AEA050585833F
:101AC000BDE8F08F0021018041808180C1800181CB
:101AD00041818181C18107210182704700210180FC
:101AE00041808180C1800221816000218181704715
:101AF00021B1028842F04002028004E002884FF6E1
:101B0000BF731A400280704721B1828B42F4806219
:101B1000828304E0828B4FF6FF331A408283704742
:101B200002884FF2FF731A40028002880A43028043
:101B30007047B1F5804F04D1028842F480420280A0
:101B400004E002884BF6FF731A40028070474FF69C
:101B5000FF62914204D0028842F48072028004E065
:101B600002884FF6FF631A400280704721B18288D5
:101B700042F00402828004E082884FF6FB731A4030
:101B80008280704721B1828842F01002828004E096
:101B900082884FF6EF731A408280704730B500227A
:101BA0000023848B4FF240052C408483022404845C
:101BB000828B0C88B4F5007F01D00C8814B94FF4E7
:101BC000807308E00C88B4F5407F03D00C88B4F52E
:101BD000807F00D100238C888D892C434D882C4335
:101BE0001C4344F400642243828330BD014688894B
:101BF00070478181704721B1028842F4005202800F
:101C000004E002884DF6FF731A4002807047018895
:101C100041F480510180704702460020012901D023
:101C2000108B00E0908A70470146088A70471AB10D
:101C300083880B43838002E083888B4383807047D3
:101C400030B5002400230C110125A540ABB2AAB188
:101C500085881D43858014E0003001400038004035
:101C6000003C00400034014000500140005401405D
:101C70000838024000127A000024F40085889D4351
:101C8000858030BD0246002013890B400BB1012036
:101C900000E000207047CA4302817047F0B5024659
:101CA000002000240023002501F00F070126BE407C
:101CB000B4B20B1101269E40B3B2968806EA030522
:101CC0001689264016B10DB1012000E00020F0BDBC
:101CD00010B5002201F00F040123A3409AB2D343B0
:101CE000038110BD10B50446FE48844208D101218D
:101CF0000846FFF712FD00210120FFF70EFD9DE0D1
:101D0000B4F1804F08D101210846FFF7F5FC00210E
:101D10000120FFF7F1FC91E0F348844208D1012152
:101D20000220FFF7E9FC00210220FFF7E5FC85E037
:101D3000EE48844208D101210420FFF7DDFC002198
:101D40000420FFF7D9FC79E0E948844208D1012159
:101D50000820FFF7D1FC00210820FFF7CDFC6DE043
:101D6000E448844208D101211020FFF7C5FC00217E
:101D70001020FFF7C1FC61E0DF48844208D1012157
:101D80002020FFF7B9FC00212020FFF7B5FC55E02B
:101D9000DA48844208D101210220FFF7BEFC00216D
:101DA0000220FFF7BAFC49E0D548844209D101215D
:101DB0000804FFF7B2FC00214FF48030FFF7ADFCC0
:101DC0003CE0D048844209D101214804FFF7A5FC3A
:101DD00000214FF40030FFF7A0FC2FE0CA488442F6
:101DE00009D101218804FFF798FC00214FF48020DD
:101DF000FFF793FC22E0C548844208D1012140202E
:101E0000FFF77AFC00214020FFF776FC16E0C0487F
:101E1000844208D101218020FFF76EFC0021802040
:101E2000FFF76AFC0AE0BB48844207D10121801514
:101E3000FFF762FC0021A015FFF75EFC10BD002239
:101E40000288A84B98420ED0AC4B98420BD0B0F110
:101E5000804F08D0A44B984205D0A44B984202D0A2
:101E6000A34B984204D14FF68F731A404B881A4304
:101E7000A04B984207D0A04B984204D04FF6FF43A6
:101E80001A400B891A4302804B68C3620B88038592
:101E9000944B984202D0994B984201D18B7A038699
:101EA0000123838270474FF0FF31416000210180A0
:101EB00001814180817270470185828270470A46A4
:101EC000002101884FF68F7319401143018070473C
:101ED00041627047C16270470146486A70470146D7
:101EE000088D704721B1028842F00202028004E0AE
:101EF00002884FF6FD731A400280704721B10288B4
:101F000042F00402028004E002884FF6FB731A409C
:101F10000280704721B1028842F08002028004E012
:101F200002884FF67F731A400280704702884FF68E
:101F3000F7731A40028002880A43028070470288C1
:101F40004FF6FF431A40028002880A43028070471E
:101F500021B1028842F00102028004E002884FF6BB
:101F6000FE731A400280704770B5002400220023DF
:101F7000058C4FF6FE7635400584028C8388048BF1
:101F80004FF68F752C40B51E2C400D882C43751EC6
:101F90002A408D892A434D882A43524DA84202D0B7
:101FA000564DA84213D14FF6F7752A40CD892A43E2
:101FB0004FF6FB752A408D882A434FF6FF652B406C
:101FC0004FF6FF552B400D8A2B434D8A2B438380C0
:101FD00004838D684563028470BD70B500240022BF
:101FE0000023058C4FF6EF7635400584028C8388FC
:101FF000048B48F6FF752C404FF6FF452C400D88AA
:102000004FF6FF7606EA05252C434FF6DF752A408A
:102010008D8906EA05152A434D8806EA05152A43E7
:10202000304DA84202D0354DA8421DD14FF67F75E4
:102030002A40CD894FF6FF7606EA05152A434FF66A
:10204000BF752A408D8806EA05152A434FF6FF35ED
:102050002B404FF2FF752B400D8A06EA85052B4376
:102060004D8A06EA85052B43838004838D6885634A
:10207000028470BD70B5002400220023058C4FF649
:10208000FF6635400584028C8388848B4FF68F75FC
:102090002C404FF6FC752C400D882C434FF6FF5515
:1020A0002A408D894FF6FF7606EA05252A434D889A
:1020B00006EA05252A430B4DA84202D00F4DA8423F
:1020C00038D14FF2FF752A40CD894FF6FF7606EAE8
:1020D00005252A434FF6FF352A408D8806EA052557
:1020E0002A4319E0000001400004004000080040BD
:1020F000000C0040001000400014004000040140AB
:1021000000400140004401400048014000180040E8
:10211000001C0040002000404EF6FF752B404DF69D
:10212000FF752B400D8A06EA05152B434D8A06EAFA
:1021300005152B43838084838D68C563028470BD3D
:1021400070B5002200230024058C4EF6FF76354042
:102150000584038C8488828B48F6FF752A404FF6ED
:10216000FF452A400D884FF6FF7606EA05252A43EB
:102170004DF6FF752B408D8906EA05352B434D88BA
:1021800006EA05352B43FE4DA84202D0FD4DA8427C
:1021900008D14BF6FF752C400D8A4FF6FF7606EA04
:1021A00085152C43848082838D680564038470BD0B
:1021B000002101804180818081608181C181018213
:1021C0004182704770B5034600200024184618303D
:1021D00001258D40ACB21D8CA5431D8409B1082991
:1021E0000AD100EB610005684FF68F763540056037
:1021F0000568154305600FE00D1FC5F34E05284423
:10220000056848F6FF763540056005684FF6FF76AD
:1022100006EA02263543056070BD4163704781635D
:102220007047C1637047016470470A460021018B03
:102230004FF68F7319401143018370470A460021FE
:10224000018B48F6FF7319404FF6FF7303EA022330
:102250001943018370470A460021818B4FF68F7323
:1022600019401143818370470A460021818B48F64B
:10227000FF7319404FF6FF7303EA0223194381836A
:1022800070470A460021018B4FF6F773194011433E
:10229000018370470A460021018B4FF2FF731940FA
:1022A0004FF6FF7303EA02231943018370470A467E
:1022B0000021818B4FF6F7731940114381837047DA
:1022C0000A460021818B4FF2FF7319404FF6FF73CE
:1022D00003EA02231943818370470A460021018BD8
:1022E0004FF6FB7319401143018370470A460021E2
:1022F000018B4FF6FF3319404FF6FF7303EA0223B9
:102300001943018370470A460021818B4FF6FB7306
:1023100019401143818370470A460021818B4FF693
:10232000FF3319404FF6FF7303EA022319438183F9
:1023300070470A460021018B4FF67F731940114305
:10234000018370470A460021018BC1F30E014FF64D
:10235000FF7303EA02231943018370470A460021F1
:10236000818B4FF67F7319401143818370470A4672
:102370000021818BC1F30E014FF6FF7303EA0223A4
:102380001943818370470A460021018C4FF6FD7383
:1023900019401143018470470A460021018C4FF611
:1023A000F77319401143018470470A460021018CDC
:1023B0004FF6DF7319404FF6FF7303EA0213194318
:1023C000018470470A460021018C4FF67F73194043
:1023D0004FF6FF7303EA02131943018470470A465C
:1023E0000021018C4FF6FF5319404FF6FF7303EAAB
:1023F00002231943018470470A460021018C4FF2E1
:10240000FF7319404FF6FF7303EA02231943018457
:1024100070470A460021018C4DF6FF7319404FF6B4
:10242000FF7303EA023319430184704730B5002378
:1024300001248C40A3B2048C9C430484048C02FAD3
:1024400001F5ADB22C43048430BD30B50023042423
:102450008C40A3B2048C9C430484048C02FA01F5E2
:10246000ADB22C43048430BD828B4FF2FF331A404F
:102470008283828B4FF6FF7303EA01231A43828320
:102480007047F0B50C461546002100220026078C47
:102490004EF6FF7C07EA0C070784818B028C4FF60F
:1024A000FF7707EA043640F6FF4739404FF6FF77DB
:1024B00007EA052739434FF6FF7707EA0337394321
:1024C00045F6FF773A4046F480573A4381830284C9
:1024D000F0BD828B4FF6F3731A408283828B0A43DE
:1024E00082837047F0B50C46154600210022002675
:1024F000078C4FF6FF6C07EA0C070784818B028C70
:102500004FF6FF7707EA04264FF60C7739404FF66F
:10251000FF7707EA03172F4339434FF2FF573A403B
:1025200046F480773A4381830284F0BD028B4FF2F8
:10253000FF331A400283028B4FF6FF7303EA012335
:102540001A4302837047F0B50C461546002100225D
:102550000026078C4FF6EF7C07EA0C070784018BF7
:10256000028C4FF6FF7707EA041640F6FF47394022
:102570004FF6FF7707EA033739434FF6FF7703E05B
:10258000000001400004014007EA052739434FF6E7
:102590005F773A4046F010073A4301830284F0BD6A
:1025A000028B4FF6F3731A400283028B0A430283B5
:1025B0007047F0B50C46154600210022068C4FF6F8
:1025C000FE773E400684018B028C4FF60C7631403C
:1025D0007E1C06EA03162E4331434FF6F576324051
:1025E00044F00106324301830284F0BD70B5054614
:1025F0000C46208850B92389A28861882846FFF7B5
:10260000D8FFE1882846FFF7CBFF25E02088042883
:102610000AD12389A28861882846FFF794FFE188C0
:102620002846FFF783FF17E0208808280AD123896E
:10263000A28861882846FFF755FFE1882846FFF702
:1026400048FF09E02389A28861882846FFF719FF1F
:10265000E1882846FFF708FF70BD00210180418016
:10266000012181800021C180018170472DE9F04165
:1026700005460C4600260127608808B9022600E0BE
:102680000026A088012801D1022700E00127208828
:10269000A0B92389A28861882846FFF78AFFE188CC
:1026A0002846FFF77DFF23893A4631462846FFF743
:1026B0004AFFE1882846FFF739FF13E02389A28803
:1026C00061882846FFF73FFFE1882846FFF72EFF85
:1026D00023893A4631462846FFF76BFFE1882846B2
:1026E000FFF75EFFBDE8F0810146486B7047014689
:1026F000886B70470146C86B70470146086C70478D
:102700000A884B881A438B881A43CB881A430B8953
:102710001A434B891A438B891A43A0F84420704707
:102720000021018041808180C180018141818181BE
:10273000704731B1B0F8442042F40042A0F8442080
:1027400005E0B0F84420C2F30E02A0F84420704720
:1027500021B1828842F00402828004E082884FF630
:10276000FB731A408280704721B1828842F00102D7
:10277000828004E082884FF6FE731A4082807047A0
:102780001AB183890B43838102E083898B43838160
:1027900070478182704702460020138A0B400BB1BC
:1027A000012000E000207047CA430282704730B524
:1027B0000246002000230024158A05EA01039589BA
:1027C00005EA010413B10CB1012000E0002030BD86
:1027D000CA430282704741EA0203A0F848307047BA
:1027E0001AB183890B43838102E083898B43838100
:1027F000704721B1828842F00802828004E082881A
:102800004FF6F7731A408280704701894FF6F872CD
:102810001140018170470A46002101894FF68F73EC
:10282000194011430181704730B504460D462946D1
:102830002046FFF7F0FF208940F00700208130BDDF
:102840002DE9F04104460D4616461F46602D06D17F
:102850003B46012231462046FFF775FE05E03B4628
:10286000012231462046FFF7A4FE29462046FFF705
:10287000D2FF208940F007002081BDE8F08130B50B
:102880000C4600210189C9B24FF6FF7505EA032500
:10289000154325432943018130BD2DE9F04105460B
:1028A0000E4617469846002443463A463146284687
:1028B000FFF7E5FF2C894FF6F870044044F0070459
:1028C0004FF68F70044044F070042C81BDE8F08115
:1028D000F0B504460D4616461F463B46324629468D
:1028E0002046FFF7CCFF208940F480402081F0BDD6
:1028F00082884FF68F731A40828082880A438280D2
:10290000704702894FF6F8731A40028102890A4320
:102910000281704702894FF67F731A400281028953
:102920000A4302817047F0B50C4615461E46002149
:10293000002200230189028B038C4FF6F87739407F
:1029400021434FF6FC473A4040F201173A434FF615
:10295000DD773B404FF6FF7707EA06172F433B43EF
:10296000018102830384F0BD21B1828842F080029C
:10297000828004E082884FF67F731A40828070471D
:10298000A0F8501070470000FE4A1070704730B138
:10299000FC49096841F48071FA4A116005E0F9497F
:1029A000096821F48071F74A1160704730B1F54928
:1029B000096841F40071F34A116005E0F1490968C2
:1029C00021F40071EF4A1160704730B1ED49096898
:1029D00041F48061EB4A116005E0EA49096821F49D
:1029E0008061E84A11607047E648006840F4006082
:1029F000E44908607047E348006840F48050E149CA
:102A000008607047DF481030006800F0004028B1CF
:102A1000DD48DC49091D0860DC4808607047D9487A
:102A20001030006840F00040D6491031086070470F
:102A30000920D4490C31096801F48031B1F5803F97
:102A400001D1012020E0CF490C31096801F01001CB
:102A500009B1062018E0CB490C31096801F48071F6
:102A600009B1022010E0C7490C31096801F0E0010A
:102A700009B1072008E0C3490C31096801F00201DF
:102A800009B1082000E00920704708B5092000902E
:102A9000FFF7CEFF009002E0FFF7CAFF00909DF81D
:102AA00000000128F8D09DF8000008BD70B504466C
:102AB0000A460026092502B909E0012A01D11602B9
:102AC00005E0022A01D1160201E04FF44076FFF73B
:102AD000DCFF0546092D2DD1AA481030006820F4EE
:102AE0004070A8491031086008460068304308600B
:102AF0000846006820F0F80008600846006844F0C6
:102B0000020108439F49103108600846006840F4FC
:102B100080300860FFF7B9FF05469A48103000681A
:102B200020F002009749103108600846006820F044
:102B3000F8000860284670BD30B50246002509241B
:102B4000FFF7A3FF044602B909E0012A01D11502EB
:102B500005E0022A01D1150201E04FF44075092C6D
:102B600020D188481030006820F440708549103129
:102B7000086008460068284308600846006840F07E
:102B8000040008600846006840F480300860FFF7E1
:102B90007CFF04467B481030006820F0040079492F
:102BA00010310860204630BD30B5024600250924AA
:102BB000FFF76BFF044602B909E0012A01D11502B3
:102BC00005E0022A01D1150201E04FF44075092CFD
:102BD00020D16C481030006820F4407069491031F1
:102BE000086008460068284308600846006840F00E
:102BF000040008600846006840F480300860FFF771
:102C000044FF04465F481030006820F004005D492E
:102C100010310860204630BD30B502460025092439
:102C2000FFF733FF044602B909E0012A01D115027A
:102C300005E0022A01D1150201E04FF44075092C8C
:102C400020D150481030006820F440704D491031B8
:102C5000086008460068284308600846006840F499
:102C6000004008600846006840F480300860FFF7C4
:102C70000CFF044643481030006820F400404149EE
:102C800010310860204630BD70B5064614461D461A
:102C90000922FFF7FAFE0246092A1ED139481030F0
:102CA000006820F440703749103108600846006819
:102CB00040F4407008600846006840F00100086079
:102CC00034607560FFF7E1FE02462E481030006860
:102CD00020F001002B4910310860104670BD30B55E
:102CE00002460C460925FFF7D0FE0546092D1DD1E9
:102CF00024481030006820F44070224910310860E8
:102D00000846006840F4007008600846006840F01B
:102D1000010008601460FFF7B8FE0546194810303E
:102D2000006820F00100174910310860284630BDC6
:102D300030B502460C460925FFF7A7FE0546092DCA
:102D40001DD110481030006820F440700D4910313A
:102D500008600846006840F4807008600846006813
:102D600040F0010008601480FFF78FFE054605481B
:102D70001030006820F00100024910310860284638
:102D800030BD0000003C024023016745AB89EFCD18
:102D900030B502460C460925FFF777FE0546092D9A
:102DA00017D19B48006820F4407099490860084694
:102DB000006808600846006840F001000860147070
:102DC000FFF763FE05469248006820F00100904935
:102DD0000860284630BD8E48001D006800F00100E4
:102DE00028B18C488A49083908608B4808607047C8
:102DF0008748001D006840F001008549091D0860F2
:102E0000704730B502460C460925FFF73EFE0546E1
:102E1000092D10D13CB17E48801D008890437C492B
:102E2000891D088007E07A48801D008891B2084318
:102E30007749891D088030BD30B502460C4609250A
:102E4000FFF723FE0546092D10D13CB170480A302A
:102E5000008890436E490A31088007E06C480A30C8
:102E6000008891B208436A490A31088030BDFF21C9
:102E7000674AD21D127802F07F0140EA0102644BDA
:102E8000DB1D1A70704730B502460C460925FFF766
:102E9000FCFD0546092D10D144B15D48801D008818
:102EA00091B208435A49891D088006E05848801DA0
:102EB000008890435649891D088030BD30B50246D0
:102EC0000C460925FFF7E1FD0546092D10D144B157
:102ED0004F480A30008891B208434D490A310880B2
:102EE00006E04B480A300088904349490A3108807F
:102EF00030BD10B502460924FFF7C7FD0446092C72
:102F000002D14348401D027010BDF0B504460D4685
:102F1000FF260927FFF7B9FD0746092F0BD13C48CB
:102F2000001D007800F00F0645EA0600104320431C
:102F30003749091D0870F0BD3549091D097821F090
:102F40001001334A121D11701146097801431170A6
:102F500070472F49091D097821F00C012C4A121DD8
:102F600011701146097801431170704700B50922AC
:102F70002748001D007840F002002549091D08700F
:102F8000FFF783FD0246104600BD2148001D006882
:102F9000C0F3471070471E48801D008870471C48CA
:102FA0000A30008870471A48801D0088704718480A
:102FB0000A300088704700201549491D0978AA2960
:102FC00001D0012000E0002070471148001D00786A
:102FD00000F00C00704729B10D4A126802430C4BF7
:102FE0001A6004E00A4A12688243094B1A6070476B
:102FF00001460020064A121F12680A400AB1012049
:1030000000E0002070470249091F08607047000077
:10301000103C02403B2A19087F6E5D4C002000BF27
:1030200004E05521764A1154411CC8B20A28F8DB45
:10303000704710B50146002000BF29E00A5C6423F8
:1030400092FBF3F230326F4B03F820200B5C6422CA
:1030500093FBF2F402FB14320A2392FBF3F23032B8
:10306000012303EB8003674CE2540A5C642392FB68
:10307000F3F403FB14220A2392FBF3F403FB142260
:103080003032022303EB80035E4CE254421CD0B288
:103090000428D3DB10BD10B55B48FFF7CAFF3A2008
:1030A0005849C8733020087435204874302088741B
:1030B0000A20C87414215348FDF788FC10BD08B5D8
:1030C00001225249DC2000F0C5F95048007855280B
:1030D00036D106224E49042000F0BCF90620002318
:1030E000494A921F19460090494800F004FD042205
:1030F00047490A2000F0AEF904200023424A19464D
:103100000090434800F0F7FC042241490E2000F0F3
:10311000A1F9042000233C4A0C32194600903C4897
:1031200000F0E9FC04223A49122000F093F904204F
:103130000023354A121D19460090354800F0DBFC8B
:1031400008BD00203049891F087008204870DC2025
:1031500088700320C8700220087103204871C020C5
:103160008871A8212848801FC17100210172642143
:103170004172FF202449891F8872FF212248801F45
:10318000C172017300214173C0201F49891F8874D7
:10319000A8211D48801FC1740021017501214175BE
:1031A0007047FDF741F8FDF78EF8FFF7CAFFA8203A
:1031B000FDF716F94FF4A060FDF742FC00F046F968
:1031C000FFF77DFF0A20FDF76DF900F069FB01F0C4
:1031D00077F8FDF7A0F93220FDF764F901F0F9FC6A
:1031E0003220FDF75FF901F053F80A4800680A49F8
:1031F000086004E009480188042000F08BFCF9E72E
:10320000C010001050000010A60000106C0000104C
:10321000E81000102C0000103000001024000010F6
:10322000704700BFFEE700BFFEE700BFFEE700BF3C
:10323000FEE7704770477047704700000CB50020EC
:10324000019000907648006840F48030744908602E
:1032500000BF7348006800F4003000900198401CE3
:103260000190009818B90198B0F5A04FF1D16C48C1
:10327000006800F4003010B10120009001E000204F
:1032800000900098012846D165484030006840F021
:1032900080506349403108606248006840F4404013
:1032A000604908605E48083000685D490831086080
:1032B0000846006840F4004008600846006840F492
:1032C000A05008605848091F0860081F006840F0B7
:1032D0008070091F086000BF5148006800F000704E
:1032E0000028F9D040F20570504908604C48083079
:1032F000006820F003004A49083108600846006869
:1033000040F00200086000BF45480830006800F047
:103310000C000828F8D10CBD10B54548006840F4F1
:103320007000434908603E48006840F001003C4995
:10333000086000203A4908310860394800683D4972
:103340000840374908603C48091D0860081F0068AC
:1033500020F48020091F0860002031490C310860EA
:10336000FFF76CFF4FF0006031498039086010BDF5
:1033700070B500200022022300240221284D0835C8
:103380002D6805F00C0020B1042806D0082834D19F
:1033900007E02A4D2A4E356033E02A4D284E35602D
:1033A0002FE01F4D2D1D2D68C5F380541C4D2D1D84
:1033B0002D6805F03F0154B1224DB5FBF1F5184ED3
:1033C000361D3668C6F3881605FB06F209E01B4D6C
:1033D000B5FBF1F5124E361D3668C6F3881605FBAF
:1033E00006F20F4D2D1D2D68C5F301456D1C6B00B8
:1033F000B2FBF3F5124E356003E0104D104E356010
:1034000000BF00BF064D08352D68C5F303150E4EED
:10341000705D0B4D2D68C540094E356070BD0000D4
:10342000003802400070004008544007003C024051
:1034300088ED00E0FFFFF6FE103000240024F400C9
:103440007000001000127A007400001010B5FDF733
:10345000E3F810BD2DE9F04704460E461746002557
:10346000A9462046E11704EB116109120E2202EA77
:103470004101A03101F0FF09FDF7ECF84846FDF7E6
:1034800095F9FDF728F9A046E11704EB116109123F
:10349000A4EB0121C8B2FDF789F9FDF71CF9FDF78E
:1034A000D9F809F10101C8B2FDF780F9FDF713F968
:1034B00000BF0DE0781EA84204D10020FDF7A3F95B
:1034C000705503E00120FDF79EF97055681CC5B2E8
:1034D000BD42EFDBFDF7E0F8BDE8F0872DE9F047EE
:1034E00004460F4690464FF0000900252046E1179C
:1034F00004EB116109120E2202EA4101A03101F030
:10350000FF09FDF7A7F84846FDF750F9FDF7E3F886
:103510002646E11704EB11610912A4EB0121C8B2A0
:10352000FDF744F9FDF7D7F800BF06E0785DFDF739
:103530003DF9FDF7D0F8681CC5B24545F6DBFDF74F
:10354000ABF80520FCF7AEFFBDE8F08710B50346E9
:10355000002001E0441CE0B29042FBDB10BD10B53E
:1035600003460020002202E00002541CE2B28A421C
:10357000FADB10BD552901D100207047552901D132
:103580000020FAE70120F8E770B505460E4614461C
:10359000E2B231462846FFF75DFF70BD2DE9F047E6
:1035A000064688461546102796FBF7F007FB106085
:1035B00000F0FF09B9F1000F0FD0A7EB0904A542F5
:1035C00000DA2C46002C08DDE2B241463046FFF717
:1035D00085FF2D1B301986B2A04410E0BD4201DAF0
:1035E0002C4600E03C46E2B241463046FFF776FF0B
:1035F0002D1B301986B2A044002D00DC00E0EDE761
:1036000000BFBDE8F0870000012080F3138800BFF1
:1036100000BFBFF34F8FFE48006800F4E060FD4933
:103620000843001DFA490860BFF34F8F00BF00BF79
:10363000FEE710B5002453222046641CF6490A54C4
:1036400054222046641C0A5441222046641C0A5419
:1036500052222046641C0A5454222046641C0A54F8
:1036600020222046641C0A544F222046641C0A541F
:103670004B222046641C0A540A222046641C0A5429
:103680002246042000F0F0FB10BD10B500245222A9
:103690002046641CE0490A5443222046641C0A5414
:1036A00056222046641C0A5420222046641C0A54D8
:1036B00045222046641C0A5452222046641C0A54A7
:1036C0002046641C0A540A222046641C0A542246DE
:1036D000042000F0C9FB10BD10B50024452220468F
:1036E000641CCD490A544E222046641C0A544422CC
:1036F0002046641C0A5420222046641C0A544F228F
:103700002046641C0A544B222046641C0A540A2298
:103710002046641C0A542246042000F0A5FB10BD7C
:1037200010B5002452222046641CBB490A5443228F
:103730002046641C0A5456222046641C0A54202247
:103740002046641C0A544F222046641C0A544B2213
:103750002046641C0A540A222046641C0A5422464D
:10376000042000F081FB10BD01460020AB4A9142CD
:1037700003D2B1F1006F00D350E0A94A914204D2C4
:10378000A64A914201D3082048E0A64A914204D2B9
:10379000A34A914201D3102040E0A34A914204D2AF
:1037A000A04A914201D3182038E0A04A914204D2A5
:1037B0009D4A914201D3202030E09D4A914204D29B
:1037C0009A4A914201D3282028E09A4A914204D291
:1037D000974A914201D3302020E0974A914204D287
:1037E000944A914201D3382018E0944A914204D27D
:1037F000914A914201D3402010E0914A914204D273
:103800008E4A914201D3482008E08E4A914204D268
:103810008B4A914201D3502000E0582070472DE997
:10382000F84305460E461746092000902846FFF744
:103830009BFF8046FFF7E6F8F320FFF7E4FB022149
:103840004046FFF733F9092813D100240EE056F85B
:1038500024102846FFF743FA00909DF8000009283D
:1038600002D00120BDE8F8832D1D641CBC42EED3BC
:1038700001E00120F6E7FFF7D2F80020F2E700218F
:10388000714A116051609160D160002004E0002213
:103890006D4910310A54401CB0F5704FF7DB70478A
:1038A00008B500200090FFF7EAFF01226946642076
:1038B000FFF7D0FD9DF80000332826D05B48006854
:1038C00062490840B0F1005F10D158484068604933
:1038D0000860084600685F4908605449086880F33A
:1038E000088800BF5B48006880470EE00CE033208A
:1038F0000090012269466420FFF750FE42F21070EA
:10390000FCF788FDFFF780FEF1E708BD10B5024621
:103910000B460020002103E09C1C645C6040491CB5
:103920009142F9DB10BDF8B503460C46002000219A
:103930000027002516464FEAE27C02EB9C7C4FEA0A
:10394000AC074FEAE27C02EB9C7C4FEAAC0CA2EBAA
:103950008C0500BF0EE0002106E0042606FB0016E1
:103960009E5D0DF80160491C0429F6DB009E44F8B9
:103970002060401CB842EEDBADB1002106E0042619
:1039800006FB00169E5D0DF80160491CA942F6DB9E
:10399000294603E0FF260DF80160491C0429F9DBE4
:1039A000009E44F82060F8BD30B502460B46264C18
:1039B000A068C41700EB5464E411A0EBC4148CB1EC
:1039C000002108E0581884781F48C06845181E4830
:1039D00010304455491C9142F4DB1B48C068104428
:1039E000194CE060002030BD70B517481A49C26814
:1039F0001030FFF798FF064613498C68E11704EB77
:103A00005161C911094A4FF4003303FB012025E03D
:103A10000CED00E00000FA05000000200040000866
:103A20000080000800C00008000001080000020833
:103A300000000408000006080000080800000A084A
:103A400000000C0800000E0804F400200000FE2F07
:103A50008C000010880000100004002032466549E8
:103A6000FFF7DDFE0546012D00D170BD0020FCE70B
:103A700038B5044660A00068009004225FA120468B
:103A800001F019F978B9FFF7AFFF08B9FFF724FE85
:103A9000012269466420FFF781FD47F23050FCF7B0
:103AA000B9FCFFF7B1FD6078217800EB012085B209
:103AB00040F20140854201DD012038BD681E2146EB
:103AC000FFF724FF691C615C884201D00120F4E704
:103AD0004C488068401C4B498860681E2146FFF7AF
:103AE00063FF30B147488068401E46498860012026
:103AF000E3E70020E1E7F0B50446059D002000BFA4
:103B000005E06618365CD7183E54461CF0B2A84251
:103B1000F7DBF0BD2DE9F04104460E463A4F204652
:103B200000F07AFF00284CD013285BD0172802D071
:103B30001C285BD12FE03548005D012802D102200E
:103B400032490855204600F0A1FF051E22DDB5F5DB
:103B5000006F01DD4FF400652A463946204600F02B
:103B6000ECF928480068012809D13846FFF780FFA2
:103B700010B1FFF78AFD0DE0FFF7D2FD0AE0062243
:103B800023A1384601F097F820B901201D490860AB
:103B9000FFF74FFD2BE0204600F078FF051E09DD02
:103BA000B5F5006F01DD4FF400652A463946204621
:103BB00000F0C3F9204600F044F9002013490855ED
:103BC00015E01248005D10B9012010490855002386
:103BD00032462121204600F039F810B900200B4967
:103BE000085504E0204600F091F800E000BF00BF57
:103BF000BDE8F08100040020FF000000454E440AAB
:103C00000000000004F40020C00000104500001077
:103C100053544152540A000010B504464FF48471C5
:103C200001EB4410102100F02EFD00BF4FF4847111
:103C300001EB441000F042FD0028F7D14FF402716F
:103C400001EB4410FF2100F01EFD10BD2DE9F041F5
:103C500004460D461646984605F00F0001280FD081
:103C600005F00F0002280BD005F00F00032807D045
:103C700005F00F00042803D005F00F00052841D1FE
:103C80002046FFF7C9FF45EA0801082202EB44106D
:103C900000F0F9FC76B1310A4FF4816202EB441076
:103CA00000F0F1FCF1B24FF4A16202EB441000F01D
:103CB000EAFC15E0FE480088401CFD4908800A46E1
:103CC0001288110A4FF4816202EB441000F0DBFC11
:103CD000F74A11784FF4A16202EB441000F0D3FCD4
:103CE0004FF4847101EB4410012100F0CCFC00BFC3
:103CF0004FF4847101EB441000F0E0FC0028F7D190
:103D0000012700E000273846BDE8F08170B5044681
:103D10004FF4427101EB441000F0D0FC132811D194
:103D20004FF4847101EB4410022100F0ACFC00BFA1
:103D30004FF4847101EB441000F0C0FC0028F7D16F
:103D4000012500E00025284670BD2DE9F04105461B
:103D50000C4616462078FF2808D16078FF2805D148
:103D6000A078FF2802D1E078FF2808D0207828B971
:103D7000607818B9A07808B9E07800B10EB90027CA
:103D80005CE00127217840F6084202EB451000F084
:103D90007AFC617840F6085202EB451000F073FCA3
:103DA000A17840F6086202EB451000F06CFCE17867
:103DB00040F6087202EB451000F065FC310A41F252
:103DC000080202EB451000F05EFCF1B241F208126D
:103DD00002EB451000F057FC4FF4847101EB4510E5
:103DE000042100F050FC00BF4FF4847101EB45103A
:103DF00000F064FC0028F7D117E04FF4427101EBAA
:103E0000451000F05BFC172800D116E0284600F0B2
:103E1000FAFD00F0080040B14FF4027101EB4510CB
:103E2000082100F030FC002707E04FF4427101EB5D
:103E3000451000F043FC1528DFD100BF3846BDE82F
:103E4000F08110B504464FF4847101EB4410082151
:103E500000F019FC00BF4FF4847101EB441000F036
:103E60002DFC0028F7D110BD2DE9F0470446884607
:103E7000164600250027A946204600F0EFFBB04279
:103E800004DA204600F0EAFB074600E0374600BFB0
:103E9000204600F0D1FD81464FF4427101EB441001
:103EA00000F00CFC0546172D03D01C2D01D0002777
:103EB00001E0B945ECDB00BF3A464146204600F040
:103EC0000FFE4FF4847101EB4410202100F0DBFB66
:103ED00000BF4FF4847101EB441000F0EFFB0028A9
:103EE000F7D110E04FF4427101EB441000F0E6FB13
:103EF0000546172D07D01C2D05D02046FFF78CFE58
:103F00000020BDE8F0874FF4027101EB441000F08F
:103F1000D5FB00F010001028E4D14FF4027101EB42
:103F20004410102100F0AFFB4FF4027101EB44107C
:103F3000102100F0A8FB3846E3E72DE9F0410446E4
:103F40000E4615460027002D15DD2A46314620462F
:103F500000F0FCFD4FF4847101EB4410402100F0AF
:103F600092FB00BF4FF4847101EB441000F0A6FBFC
:103F70000028F7D12F463846BDE8F0812DE9F047FB
:103F80000446894616461D46089F4FF00008204605
:103F900000F064FBB04204DA204600F05FFB80468C
:103FA00000E0B046287828B9687818B9A87808B928
:103FB000E87800B117B94FF0000863E0297840F6BF
:103FC000084202EB441000F05EFB697840F60852AC
:103FD00002EB441000F057FBA97840F6086202EBB0
:103FE000441000F050FBE97840F6087202EB4410F0
:103FF00000F049FB390A41F2080202EB441000F0DC
:1040000042FBF9B241F2081202EB441000F03BFB14
:1040100042464946204600F063FD4FF4847101EBAF
:104020004410202100F02FFB00BF4FF4847101EBFE
:10403000441000F043FB0028F7D112E04FF4027166
:1040400001EB441000F03AFB00F0080048B14FF4D7
:10405000027101EB4410182100F015FB0020BDE8AF
:10406000F0874FF4027101EB441000F027FB00F0E1
:1040700010001028E2D14FF4027101EB441010211E
:1040800000F001FB4046EAE72DE9FC5F05468A4661
:1040900091461E46DDF8308000270024A346B9F182
:1040A000000F7CDD42F6080101EB451002E0000044
:1040B0009000001000F002FB044642F6081101EBEC
:1040C000451000F0FBFA00EB042084B2200200EB64
:1040D000451000F1180B082101EB451000F0EEFA35
:1040E00000F00700022804D0032844D0042879D126
:1040F00079E008226946584600F01FFB04F10800E9
:1041000084B29DF8000030709DF8010070709DF839
:104110000200B0709DF80300F0709DF80400A8F84C
:1041200000009DF8050098F8001000EB0120A8F8A9
:1041300000009DF806709DF8070000EB072087B28D
:10414000200200EB451000F1180B3A465146584644
:1041500000F0F3FAE01984B2210A42F6080202EBF9
:10416000451000F090FAE1B242F6081202EB451059
:1041700000F089FA6BE006226946584600F0DDFA45
:10418000A01D84B29DF8000030709DF80100707091
:104190009DF80200B0709DF80300F07000E067E049
:1041A0009DF804709DF8050000EB072087B22002FF
:1041B00000EB451000F1180B3A465146584600F006
:1041C000BCFAE01984B2210A42F6080202EB45105B
:1041D00000F059FAE1B242F6081202EB451000F085
:1041E00052FA34E032E002226946584600F0A5FA5D
:1041F000A01C84B29DF800709DF8010000EB072020
:10420000801E87B240F2EA50874204DD1AA000F017
:10421000EBFC00BFFEE7200200EB451000F1180B9D
:104220003A465146584600F088FAE01984B2210A0D
:1042300042F6080202EB451000F025FAE1B242F620
:10424000081202EB451000F01EFA00E000BF00BFAC
:104250004FF4847101EB4510402100F014FA00BFC7
:104260004FF4847101EB451000F028FA0028F7D1D3
:104270003846BDE8FC9F0000646174615F6C656E48
:10428000206F76657220313531340D0A0000000050
:1042900010B5E44800F029FBE248083000F015FBB7
:1042A000E048001F00F033FB41F2707000F06CFB3F
:1042B000032000F076FBDC49DC4800F06FFA10BD0B
:1042C00010B50821DA48FCF72FFD4FF4FA70FCF71F
:1042D000E9F80821D648FCF725FD6420FCF7E2F850
:1042E00010BDD448006870470146302905DB3929E4
:1042F00003DCA1F13000C0B27047612905DB6629FB
:1043000003DCA1F15700C0B2F6E7412905DB4629DD
:1043100003DCA1F13700C0B2EEE70846ECE730B5A8
:1043200002460B46002405E012F8010BFFF7DCFF04
:1043300004FB030410780028F6D1A0B230BD30B5DC
:1043400002460B46002405E012F8010BFFF7CCFFF4
:1043500004FB030410780028F6D1204630BD2DE977
:10436000F04104460D461646701EC7B22022314663
:10437000284600F0EBFC00BF0A2094FBF0F100FBA4
:1043800011403030C2B23846791ECFB22A540A20CA
:1043900094FBF0F080B2041EEEDCBDE8F0812DE964
:1043A000F04104460F46904626460CB1207810B9DD
:1043B0000020BDE8F0810BE03078FFF795FF05465F
:1043C000002D03DBBD4201DA761C01E00020F0E79E
:1043D00030780028F0D1B9B22046FFF7A0FFC8F826
:1043E00000000120E5E710B50B46002104E0445C25
:1043F0009C4200D14254491C445C002CF7D110BDB2
:10440000014600200A06100C40EA112070470146C0
:1044100000200806C1F3072240EA0240C1F3074228
:1044200040EA022040EA116070472DE9F0478146DA
:104430000E4617461D463146484600F0E7FB044647
:10444000304600F019FC04443946204600F0DEFBFB
:104450008246AAEB04001FFA80F84246214628460D
:1044600000F0C5FC002005F80800BDE8F0872DE944
:10447000F04389B007468846394601A800F0D8FBCA
:1044800001AC002623E06CA1204600F0B9FB0446F5
:104490002078302809D16078782806D11021A01C16
:1044A000FFF73DFF00F0FF090DE00A212046FFF76E
:1044B00036FF0546FF2D02DC05F0FF0903E0002072
:1044C00009B0BDE8F08308F806900024761C042E9D
:1044D000D9DB0120F4E710B504462021574800F04D
:1044E0003DFC564810BD10B504461021544800F05C
:1044F00035FC534810BDF0B58FB006460F4601ACF1
:10450000314601A800F094FB00252AE04AA120468C
:1045100000F076FB044614B900200FB0F0BD2078FF
:1045200030280AD16078782807D10EAA1021A01C63
:10453000FFF735FF48B90020EFE70EAA0A21204611
:10454000FFF72DFF08B90020E7E70E9878550E9881
:10455000002802DB0E98FF2801DD0020DDE70024A3
:104560006D1C042DD2DB0120D7E700B503461846A9
:10457000FFF746FF00BD00B503461846FFF747FFAB
:1045800000BD10B504462046FFF7EFFF10BD10B583
:1045900004462046FFF7EFFF10BDF0B502460D467A
:1045A000C5F34F06002400210EE012F811304FF63B
:1045B000FF7707EA0323012707EB4107D75D1F4475
:1045C000BBB21C444F1CB9B2B142EEDB05F001078F
:1045D0001FB112F8113004EB0324A0B200EB144712
:1045E000FF43B8B2F0BDF1B500246D4600BF15E041
:1045F00004F5A06000F062F8295D00EA010704F507
:10460000706000F05BF8064604F5A06000F056F814
:104610000640B74201D00120F8BD641C042CE7DB42
:104620000020F9E7AA0000103D000010350000103E
:10463000000002402C0000102E0000004C11001061
:104640006C1100100146F948405C7047F74A11545C
:1046500070470146F64830F8110070470146F548AA
:1046600030F81100704710B50020FBF7C2FF10BDF5
:1046700010B50120FBF7BDFF10BD10B50446204664
:10468000FBF730FF10BD70B504460D4671B6FFF75D
:10469000EAFFC4F30740FFF7F0FFC4F30720FFF77A
:1046A000ECFF04F0F801091DC8B2FFF7E6FF284649
:1046B000FFF7E3FFFFF7DCFF61B670BD70B504469E
:1046C000002571B6FFF7CFFFC4F30740FFF7D5FF12
:1046D000C4F30720FFF7D1FF04F0F800FFF7CDFF88
:1046E0000020FFF7CAFF0546FFF7C2FF61B6284664
:1046F00070BD2DE9F04104460F4615460026FFF730
:10470000B2FFC4F30740FFF7B8FFC4F30720FFF779
:10471000B4FF04F0F801091DC8B2FFF7AEFF00BFF7
:1047200004E0B85DFFF7A9FF701C86B2AE42F8DB6B
:10473000FFF79EFF2846BDE8F0812DE9F0410446D1
:104740000F461546002671B6FFF78DFFC4F30740EC
:10475000FFF793FFC4F30720FFF78FFF04F0F80083
:10476000FFF78BFF002605E00020FFF786FFB85516
:10477000701C86B2AE42F7DBFFF77AFF61B62846BF
:10478000BDE8F08110B5044621460020FFF77BFF0D
:1047900010BD10B58020FFF7F5FF10BD2DE9F041E9
:1047A00005460E460027B846002489E0295D41F6FB
:1047B000087202EB4410FFF766FF315D41F60862B4
:1047C00002EB4410FFF75FFF00209A4921F8140024
:1047D000974921F81400B7F5804F32DC285D042892
:1047E00016D004DC012807D0022823D10AE00828CB
:1047F00014D010281ED117E04FF480608D4921F8A5
:1048000014001DE04FF400608A4921F8140017E0FD
:104810004FF48050874921F8140011E04FF4005004
:10482000844921F814000BE04FF48040814921F8BD
:10483000140005E04FF400607D4921F8140000BF2A
:1048400000BFB8F5804F32DC305D042816D004DCA0
:10485000012807D0022823D10AE0082814D0102804
:104860001ED117E04FF48060714921F814001DE05B
:104870004FF400606E4921F8140017E04FF48050A7
:104880006B4921F8140011E04FF40050684921F8F9
:1048900014000BE04FF48040654921F8140005E056
:1048A0004FF40060624921F8140000BF00BF614866
:1048B00030F8140007445E4830F814008044641C4B
:1048C000082CFFF673AFBDE8F08110B50446042252
:1048D00021469001FFF70DFF10BD10B504460422DC
:1048E00021469001FFF729FF10BD10B504460422B0
:1048F00021464FF4A060FFF7FCFE10BD10B5044642
:10490000062221464FF41060FFF7F3FE10BD10B5EC
:104910000446042221464FF47060FFF7EAFE10BD02
:1049200070B504460D464FF4027101EB4410294660
:10493000FFF7A9FE70BD10B5044604222146900180
:10494000FFF7FBFE10BD10B50446042221464FF4CC
:10495000A060FFF7F2FE10BD10B504460622214606
:104960004FF41060FFF7E9FE10BD10B504460422B5
:1049700021464FF47060FFF7E0FE10BD10B54FF414
:10498000A850FFF79BFE10BD10B50446210A4FF456
:10499000C850FFF778FEE1B24FF4D050FFF773FE36
:1049A00010BD10B5044621464FF4D850FFF76BFEFA
:1049B00010BD70B50446FFF7E1FF60EA0400C5B220
:1049C00029464FF4A850FFF75EFE70BD70B504464F
:1049D0000D46290A41F2082202EB4410FFF753FE6C
:1049E000E9B241F2083202EB4410FFF74CFE70BD11
:1049F00070B504460D4641F2086101EB44102946AA
:104A0000FFF741FE70BD10B504464FF4027101EB93
:104A10004410FFF753FE10BD10B504464FF4427129
:104A200001EB4410FFF74AFE10BD00009200001099
:104A30008C1100107C11001070B504460025002672
:104A400000BF42F2080101EB4410FFF737FE0646B3
:104A500042F2081101EB4410FFF730FE00EB062094
:104A600086B27EB142F2080101EB4410FFF726FE48
:104A7000054642F2081101EB4410FFF71FFE00EB60
:104A8000052085B2B542DCD1284670BD70B504461C
:104A90000025002600BF42F2086101EB4410FFF739
:104AA0000DFE064642F2087101EB4410FFF706FEC8
:104AB00000EB062086B27EB142F2086101EB4410A1
:104AC000FFF7FCFD054642F2087101EB4410FFF7C9
:104AD000F5FD00EB052085B2B542DCD1284670BD5E
:104AE0002DE9F04104460F4616460025A8460EB9AA
:104AF000BDE8F08142F2084101EB4410FFF7DEFD12
:104B0000054642F2085101EB4410FFF7D7FD00EBD8
:104B1000052085B2280200EB441000F1100832464F
:104B200039464046FFF7E5FDA81985B2290A42F249
:104B3000084202EB4410FFF7A6FDE9B242F2085228
:104B400002EB4410FFF79FFD00BFD1E72DE9F041D4
:104B500004460F4616460025A8460EB9BDE8F0816A
:104B600042F6080101EB4410FFF7A8FD054642F6A6
:104B7000081101EB4410FFF7A1FD00EB052085B201
:104B8000280200EB441000F118083246394640462E
:104B9000FFF7D3FDA81985B2290A42F6080202EBF5
:104BA0004410FFF770FDE9B242F6081202EB441020
:104BB000FFF769FD00BFD1E710B50948FFF795FE83
:104BC00007480830FFF781FE0548001FFFF79FFEEA
:104BD00010BD10B502480A38FFF790FE10BD000066
:104BE000AA000010704700000FB4044910B503AAD2
:104BF000029800F02BF910BC5DF814FB0C000010BB
:104C0000014A00F035B900009C00001030B505469F
:104C10000B462A4613F8014B12F8010B08B1A042CB
:104C2000F8D01CB1002802D06D1CF1E7284630BD39
:104C300040EA0103024630B59B0710D14FF0013422
:104C400000E008C208C91D1B9D4315EAC41FF8D027
:104C500013F0FF0102F8011B0DD01B0AF8E711F851
:104C6000013B002B02F8013B05D011F8013B002B62
:104C700002F8013BF3D130BD10B5431C02E010F83F
:104C8000011B71B18107FAD14FF0013202C88C1AB1
:104C90008C4314EAC211F9D0C01A0A0603D0C01E10
:104CA00010BDC01A10BD0A0401D0801E10BD09023B
:104CB000FCD0401E10BD40EA010370B59B072ED109
:104CC0004FF00136042A2AD308C810C99D1B9D4302
:104CD000121F15EAC61517D0D8B2E1B2401A50EA31
:104CE000056110D198B2A1B2401A50EA05410AD12B
:104CF00023F07F4024F07F41401A50EA052102D181
:104D0000180EA0EB146070BDA342DBD018BA21BA14
:104D1000884201D9012070BD4FF0FF3070BD0AB943
:104D2000002070BD10F8013B11F8014B63B1A342A4
:104D30000AD1521E08D010F8013B11F8014B1BB1EB
:104D4000A34201D1521EEDD1181B70BD02F0FF032A
:104D500043EA032242EA024200F002B84FF00002A6
:104D60000429C0F0128010F0030C00F01B80CCF17D
:104D7000040CBCF1020F18BF00F8012BA8BF20F8EB
:104D8000022BA1EB0C0100F00DB85FEAC17C24BF3F
:104D900000F8012B00F8012B48BF00F8012B7047E9
:104DA0004FF0000200B5134694469646203922BFC4
:104DB000A0E80C50A0E80C50B1F12001BFF4F7AF0F
:104DC000090728BFA0E80C5048BF0CC05DF804EBF1
:104DD000890028BF40F8042B08BF704748BF20F85F
:104DE000022B11F0804F18BF00F8012B704710B54F
:104DF000044610F0030F08BF11F0030F40F01580B8
:104E00004FF0013E121FC0F20E8051F8043BA3EB9D
:104E10000E0C2CEA030C1CEACE1C08BF40F8043B25
:104E2000F0D0A1F1040102F10402521E08DB11F8D6
:104E3000013B002B00F8013BF7D11146FFF78EFF35
:104E4000204610BD7047704770477047074B70B5DC
:104E50000D467B4400F033F80446284600F042F843
:104E600010B14FF0FF3070BD204670BDA5BAFFFFF6
:104E70002DE9F04115460E46040002D12C6804B914
:104E80000BA4204600F042F80444207870B1274675
:104E90003146384600F02AF80444207810B100204A
:104EA00004F8010B38462C60BDE8F0810027F9E7D3
:104EB0000000000001694A1C02610878704700B5D3
:104EC0008FB0CDE901310021059105497944CDE943
:104ED00003101146684600F04CF80FB000BD00000A
:104EE000E5FFFFFF007B00F08000704730B5034610
:104EF0001D781DB10A4603E0AC4201D1181A30BD3D
:104F000012F8014B002CF7D15B1CF1E730B50346DA
:104F10001D783DB10A4612F8014B1CB1AC42FAD1E2
:104F20005B1CF5E7181A30BD754600F03DF8AE463B
:104F300005006946534620F00700854618B020B5A5
:104F4000FBF76CFDBDE820404FF000064FF0000776
:104F50004FF000084FF0000B21F00701AC46ACE821
:104F6000C009ACE8C009ACE8C009ACE8C0098D468E
:104F700070472DE9F04106460024D6E90170F56836
:104F80008046304603E04146B847641C3046A84797
:104F90000028F8D12046BDE8F0810446AFF3008038
:104FA0002046FBF73AF90000004870479C110010BA
:104FB0004FF04070E1EE100A70470000EC4F00081F
:104FC00000000010A0000000C4010008EC4F000821
:104FD0000000002014E40100E00100088C500008EB
:104FE000A000001060170000E001000800000000B1
:104FF00000000000000000000000000000000000B1
:10500000000001020304010203040607080900006E
:10501000B80B0000000000000200000000000000CB
:105020000102020202020202020202020202020261
:10503000020000000000000000009E083030302E0A
:105040003030302E3030302E303030000000000054
:10505000000000000000000000000000007A030AC9
:105060000000000000000000010203040607080918
:10507000E803000000000000000000000000000045
:0C50800000000000000000000000000024
:040000050800018965
:00000001FF
